{
  "contractName": "ListingsRegistry",
  "abi": [
    {
      "constant": true,
      "inputs": [],
      "name": "owner",
      "outputs": [
        {
          "name": "",
          "type": "address"
        }
      ],
      "payable": false,
      "stateMutability": "view",
      "type": "function"
    },
    {
      "constant": true,
      "inputs": [
        {
          "name": "",
          "type": "uint256"
        }
      ],
      "name": "listings",
      "outputs": [
        {
          "name": "",
          "type": "address"
        }
      ],
      "payable": false,
      "stateMutability": "view",
      "type": "function"
    },
    {
      "inputs": [],
      "payable": false,
      "stateMutability": "nonpayable",
      "type": "constructor"
    },
    {
      "anonymous": false,
      "inputs": [
        {
          "indexed": false,
          "name": "_index",
          "type": "uint256"
        }
      ],
      "name": "NewListing",
      "type": "event"
    },
    {
      "constant": true,
      "inputs": [],
      "name": "listingsLength",
      "outputs": [
        {
          "name": "",
          "type": "uint256"
        }
      ],
      "payable": false,
      "stateMutability": "view",
      "type": "function"
    },
    {
      "constant": true,
      "inputs": [
        {
          "name": "_index",
          "type": "uint256"
        }
      ],
      "name": "getListing",
      "outputs": [
        {
          "name": "",
          "type": "address"
        },
        {
          "name": "",
          "type": "address"
        },
        {
          "name": "",
          "type": "string"
        },
        {
          "name": "",
          "type": "uint256"
        },
        {
          "name": "",
          "type": "uint256"
        }
      ],
      "payable": false,
      "stateMutability": "view",
      "type": "function"
    },
    {
      "constant": true,
      "inputs": [
        {
          "name": "addrs",
          "type": "address"
        }
      ],
      "name": "getListingByAddress",
      "outputs": [
        {
          "name": "",
          "type": "address"
        },
        {
          "name": "",
          "type": "address"
        },
        {
          "name": "",
          "type": "string"
        },
        {
          "name": "",
          "type": "uint256"
        },
        {
          "name": "",
          "type": "uint256"
        }
      ],
      "payable": false,
      "stateMutability": "view",
      "type": "function"
    },
    {
      "constant": false,
      "inputs": [
        {
          "name": "_ipfsHash",
          "type": "string"
        },
        {
          "name": "_price",
          "type": "uint256"
        },
        {
          "name": "_unitsAvailable",
          "type": "uint256"
        }
      ],
      "name": "create",
      "outputs": [
        {
          "name": "",
          "type": "uint256"
        }
      ],
      "payable": false,
      "stateMutability": "nonpayable",
      "type": "function"
    }
  ],
  "bytecode": "0x608060405234801561001057600080fd5b5060008054600160a060020a03191633179055611cad806100326000396000f30060806040526004361061005e5763ffffffff60e060020a600035041663107a274a81146100635780637afd81f5146101335780638da5cb5b1461015a578063cda3c4991461018b578063de74e57b146101ed578063fd188cfd14610205575b600080fd5b34801561006f57600080fd5b5061007b600435610226565b6040518086600160a060020a0316600160a060020a0316815260200185600160a060020a0316600160a060020a0316815260200180602001848152602001838152602001828103825285818151815260200191508051906020019080838360005b838110156100f45781810151838201526020016100dc565b50505050905090810190601f1680156101215780820380516001836020036101000a031916815260200191505b50965050505050505060405180910390f35b34801561013f57600080fd5b5061014861051f565b60408051918252519081900360200190f35b34801561016657600080fd5b5061016f610525565b60408051600160a060020a039092168252519081900360200190f35b34801561019757600080fd5b506040805160206004803580820135601f81018490048402850184019095528484526101489436949293602493928401919081908401838280828437509497505084359550505060209092013591506105349050565b3480156101f957600080fd5b5061016f6004356106b2565b34801561021157600080fd5b5061007b600160a060020a03600435166106da565b600080606060008060018681548110151561023d57fe5b60009182526020909120015460018054600160a060020a03909216918890811061026357fe5b9060005260206000200160009054906101000a9004600160a060020a0316600160a060020a0316638da5cb5b6040518163ffffffff1660e060020a028152600401602060405180830381600087803b1580156102be57600080fd5b505af11580156102d2573d6000803e3d6000fd5b505050506040513d60208110156102e857600080fd5b505160018054899081106102f857fe5b6000918252602082200154604080517fc623674f0000000000000000000000000000000000000000000000000000000081529051600160a060020a039092169263c623674f9260048084019382900301818387803b15801561035957600080fd5b505af115801561036d573d6000803e3d6000fd5b505050506040513d6000823e601f3d908101601f19168201604052602081101561039657600080fd5b8101908080516401000000008111156103ae57600080fd5b820160208101848111156103c157600080fd5b81516401000000008111828201871017156103db57600080fd5b50506001805491945092508b915081106103f157fe5b9060005260206000200160009054906101000a9004600160a060020a0316600160a060020a031663a035b1fe6040518163ffffffff1660e060020a028152600401602060405180830381600087803b15801561044c57600080fd5b505af1158015610460573d6000803e3d6000fd5b505050506040513d602081101561047657600080fd5b5051600180548b90811061048657fe5b9060005260206000200160009054906101000a9004600160a060020a0316600160a060020a031663c6bbd6af6040518163ffffffff1660e060020a028152600401602060405180830381600087803b1580156104e157600080fd5b505af11580156104f5573d6000803e3d6000fd5b505050506040513d602081101561050b57600080fd5b5051939a9299509097509550909350915050565b60015490565b600054600160a060020a031681565b60006001338585856105446109b0565b600160a060020a0385168152604081018390526060810182905260806020808301828152865192840192909252855160a084019187019080838360005b83811015610599578181015183820152602001610581565b50505050905090810190601f1680156105c65780820380516001836020036101000a031916815260200191505b5095505050505050604051809103906000f0801580156105ea573d6000803e3d6000fd5b50815460018082018455600093845260208420909101805473ffffffffffffffffffffffffffffffffffffffff1916600160a060020a039390931692909217909155805460001981019260029290918490811061064357fe5b6000918252602080832090910154600160a060020a031683528281019390935260409182019020929092556001548251600019909101815291517fd8562534ed9a3ce564a595a66dbcc871a37cff70205ea8bc8d0276dcaa4d10099281900390910190a1506001549392505050565b60018054829081106106c057fe5b600091825260209091200154600160a060020a0316905081565b600160a060020a0381166000908152600260205260408120546001805483926060928492839290811061070957fe5b6000918252602080832090910154600160a060020a038981168452600290925260409092205460018054929093169291811061074157fe5b9060005260206000200160009054906101000a9004600160a060020a0316600160a060020a0316638da5cb5b6040518163ffffffff1660e060020a028152600401602060405180830381600087803b15801561079c57600080fd5b505af11580156107b0573d6000803e3d6000fd5b505050506040513d60208110156107c657600080fd5b5051600160a060020a0388166000908152600260205260409020546001805490919081106107f057fe5b6000918252602082200154604080517fc623674f0000000000000000000000000000000000000000000000000000000081529051600160a060020a039092169263c623674f9260048084019382900301818387803b15801561085157600080fd5b505af1158015610865573d6000803e3d6000fd5b505050506040513d6000823e601f3d908101601f19168201604052602081101561088e57600080fd5b8101908080516401000000008111156108a657600080fd5b820160208101848111156108b957600080fd5b81516401000000008111828201871017156108d357600080fd5b5050600160a060020a038c166000908152600260205260409020546001805492955093509150811061090157fe5b9060005260206000200160009054906101000a9004600160a060020a0316600160a060020a031663a035b1fe6040518163ffffffff1660e060020a028152600401602060405180830381600087803b15801561095c57600080fd5b505af1158015610970573d6000803e3d6000fd5b505050506040513d602081101561098657600080fd5b5051600160a060020a038a1660009081526002602052604090205460018054909190811061048657fe5b6040516112c1806109c1833901905600608060405234801561001057600080fd5b506040516112c13803806112c1833981016040908152815160208084015192840151606085015160008054600160a060020a038616600160a060020a0319918216179091556001805490911633179055939094018051929490939092909161007d9160029186019061009c565b506003919091556004555050426005819055624f1a0001600655610137565b828054600181600116156101000203166002900490600052602060002090601f016020900481019282601f106100dd57805160ff191683800117855561010a565b8280016001018555821561010a579182015b8281111561010a5782518255916020019190600101906100ef565b5061011692915061011a565b5090565b61013491905b808211156101165760008155600101610120565b90565b61117b806101466000396000f3006080604052600436106100cf5763ffffffff7c010000000000000000000000000000000000000000000000000000000060003504166328e671b981146100d4578063325a19f1146100fb5780633742a9f71461011057806343d726d6146101445780634665096d1461015b5780634884f459146101705780635ebf3e9b1461017b578063663646601461019057806373d4a13a146101985780638392fe311461025a5780638da5cb5b14610272578063a035b1fe14610287578063c623674f1461029c578063c6bbd6af14610326575b600080fd5b3480156100e057600080fd5b506100e961033b565b60408051918252519081900360200190f35b34801561010757600080fd5b506100e9610341565b34801561011c57600080fd5b50610128600435610347565b60408051600160a060020a039092168252519081900360200190f35b34801561015057600080fd5b50610159610373565b005b34801561016757600080fd5b506100e96103ba565b6101596004356103c0565b34801561018757600080fd5b506101286105b6565b6101286105c5565b3480156101a457600080fd5b506101ad6106e4565b6040518087600160a060020a0316600160a060020a0316815260200180602001868152602001858152602001848152602001838152602001828103825287818151815260200191508051906020019080838360005b8381101561021a578181015183820152602001610202565b50505050905090810190601f1680156102475780820380516001836020036101000a031916815260200191505b5097505050505050505060405180910390f35b34801561026657600080fd5b506101286004356107c1565b34801561027e57600080fd5b506101286107e9565b34801561029357600080fd5b506100e96107f8565b3480156102a857600080fd5b506102b16107fe565b6040805160208082528351818301528351919283929083019185019080838360005b838110156102eb5781810151838201526020016102d3565b50505050905090810190601f1680156103185780820380516001836020036101000a031916815260200191505b509250505060405180910390f35b34801561033257600080fd5b506100e9610889565b60075490565b60055481565b600060078281548110151561035857fe5b600091825260209091200154600160a060020a031692915050565b600054600160a060020a0316331461038a57600080fd5b600060048190556040517ffa378a7d48087b5b4be3b8236f6f8829009c67d0dc3a6a431e43385d52ea2d1d9190a1565b60065481565b6004546000908211156103d257600080fd5b60065442106103e057600080fd5b604080517f1c6b9b03000000000000000000000000000000000000000000000000000000008152306004820152336024820152905173__PurchaseLibrary_______________________91631c6b9b03916044808301926020929190829003018186803b15801561045057600080fd5b505af4158015610464573d6000803e3d6000fd5b505050506040513d602081101561047a57600080fd5b50516004805484900381556007805460018101825560009182527fa66cc928b5edb82af9bd49922954155ab7b0942694bea4ce44661d9a8736c68801805473ffffffffffffffffffffffffffffffffffffffff1916600160a060020a038516908117909155604080517f1b9265b800000000000000000000000000000000000000000000000000000000815290519495509093631b9265b8933493838201939092919082900301818588803b15801561053257600080fd5b505af1158015610546573d6000803e3d6000fd5b505060408051600160a060020a038616815290517f2df0d5ee1e33bfff4ba740237ef59eef9093cf4c8ebb55ad1a6e63f6801089be94509081900360200192509050a16040517ffa378a7d48087b5b4be3b8236f6f8829009c67d0dc3a6a431e43385d52ea2d1d90600090a15050565b600154600160a060020a031681565b60008030336105d261088f565b600160a060020a03928316815291166020820152604080519182900301906000f080158015610605573d6000803e3d6000fd5b50905080600160a060020a0316631b9265b8346040518263ffffffff167c01000000000000000000000000000000000000000000000000000000000281526004016000604051808303818588803b15801561065f57600080fd5b505af1158015610673573d6000803e3d6000fd5b505060408051600160a060020a038616815290517f2df0d5ee1e33bfff4ba740237ef59eef9093cf4c8ebb55ad1a6e63f6801089be94509081900360200192509050a16040517ffa378a7d48087b5b4be3b8236f6f8829009c67d0dc3a6a431e43385d52ea2d1d90600090a1919050565b600060606000806000806000809054906101000a9004600160a060020a03166002600354600454600554600654848054600181600116156101000203166002900480601f0160208091040260200160405190810160405280929190818152602001828054600181600116156101000203166002900480156107a65780601f1061077b576101008083540402835291602001916107a6565b820191906000526020600020905b81548152906001019060200180831161078957829003601f168201915b50505050509450955095509550955095509550909192939495565b60078054829081106107cf57fe5b600091825260209091200154600160a060020a0316905081565b600054600160a060020a031681565b60035481565b6002805460408051602060018416156101000260001901909316849004601f810184900484028201840190925281815292918301828280156108815780601f1061085657610100808354040283529160200191610881565b820191906000526020600020905b81548152906001019060200180831161086457829003601f168201915b505050505081565b60045481565b6040516108b0806108a083390190560060806040526003805460ff1916905534801561001a57600080fd5b506040516040806108b083398101604052805160209091015160018054600160a060020a03928316600160a060020a031991821617909155600080549290931691161790554260025561083e806100726000396000f30060806040526004361061007f5763ffffffff60e060020a6000350416631b9265b88114610084578063325a19f11461008e5780637150d8ae146100b557806373d4a13a146100e6578063a3c0ac1014610168578063c040e6b81461017d578063c39b6840146101b6578063d516532714610217578063ee2c8ea01461022c575b600080fd5b61008c61028d565b005b34801561009a57600080fd5b506100a3610375565b60408051918252519081900360200190f35b3480156100c157600080fd5b506100ca61037b565b60408051600160a060020a039092168252519081900360200190f35b3480156100f257600080fd5b506100fb61038a565b604051600160a060020a03861681526020810185600681111561011a57fe5b60ff16815260200184600160a060020a0316600160a060020a0316815260200183600160a060020a0316600160a060020a031681526020018281526020019550505050505060405180910390f35b34801561017457600080fd5b5061008c6103af565b34801561018957600080fd5b506101926103c3565b604051808260068111156101a257fe5b60ff16815260200191505060405180910390f35b3480156101c257600080fd5b5060408051602060046024803582810135601f810185900485028601850190965285855261008c95833560ff169536956044949193909101919081908401838280828437509497506103f19650505050505050565b34801561022357600080fd5b506100ca61064e565b34801561023857600080fd5b5060408051602060046024803582810135601f810185900485028601850190965285855261008c95833560ff1695369560449491939091019190819084018382808284375094975061065d9650505050505050565b6000809054906101000a9004600160a060020a0316600160a060020a031663a035b1fe6040518163ffffffff1660e060020a028152600401602060405180830381600087803b1580156102df57600080fd5b505af11580156102f3573d6000803e3d6000fd5b505050506040513d602081101561030957600080fd5b505130311061037357600380546001919060ff191682805b02179055506003546040517f297fa9ffcce4a8f1e427986966e131669169a104212e72d48d20e935391873399160ff16908082600681111561035f57fe5b60ff16815260200191505060405180910390a15b565b60025481565b600154600160a060020a031681565b600354600054600154600254309360ff1692600160a060020a03908116921691929394565b600380546002919060ff1916600183610321565b6000600260035460ff1660068111156103d857fe5b14156103e6575060036103ee565b5060035460ff165b90565b6003805460ff19166006908117918290556040517f297fa9ffcce4a8f1e427986966e131669169a104212e72d48d20e935391873399260ff16918190839081111561043857fe5b60ff16815260200191505060405180910390a17fdfb7c05c34f1e510643d0afd4a7720308aa8820f72e6b29d860780eefb8deb196000809054906101000a9004600160a060020a0316600160a060020a0316638da5cb5b6040518163ffffffff1660e060020a028152600401602060405180830381600087803b1580156104be57600080fd5b505af11580156104d2573d6000803e3d6000fd5b505050506040513d60208110156104e857600080fd5b505160015460408051600160a060020a038085168252909216602083810182905260ff881692840192909252608060608401818152875191850191909152865191938893889391929160a084019185019080838360005b8381101561055757818101518382015260200161053f565b50505050905090810190601f1680156105845780820380516001836020036101000a031916815260200191505b509550505050505060405180910390a16000809054906101000a9004600160a060020a0316600160a060020a0316638da5cb5b6040518163ffffffff1660e060020a028152600401602060405180830381600087803b1580156105e657600080fd5b505af11580156105fa573d6000803e3d6000fd5b505050506040513d602081101561061057600080fd5b5051604051600160a060020a0390911690303180156108fc02916000818181858888f19350505050158015610649573d6000803e3d6000fd5b505050565b600054600160a060020a031681565b6003805460ff19168117908190556040517f297fa9ffcce4a8f1e427986966e131669169a104212e72d48d20e935391873399160ff1690808260068111156106a157fe5b60ff16815260200191505060405180910390a160015460008054604080517f8da5cb5b00000000000000000000000000000000000000000000000000000000815290517fdfb7c05c34f1e510643d0afd4a7720308aa8820f72e6b29d860780eefb8deb1994600160a060020a0390811694931692638da5cb5b92600480820193602093909283900390910190829087803b15801561073e57600080fd5b505af1158015610752573d6000803e3d6000fd5b505050506040513d602081101561076857600080fd5b505160408051600160a060020a038085168252831660208281019190915260ff881692820192909252608060608201818152875191830191909152865188938893929160a084019185019080838360005b838110156107d15781810151838201526020016107b9565b50505050905090810190601f1680156107fe5780820380516001836020036101000a031916815260200191505b509550505050505060405180910390a150505600a165627a7a72305820000ac62564a6cdc3a1c8994796682138afd7b0cb64dca818f9267ac4b9f4fba00029a165627a7a72305820634e525418c1b3bdd6e6521ae5cddea3e77689d8e33a46f89cfdfd8260702ad60029a165627a7a723058201ec73432177ff5a2da62b8ce5a4ad3f09e32f1c33245dc9305c68b7aa2e8fc8d0029",
  "source": "pragma solidity 0.4.24;\r\n\r\nimport \"./Listing.sol\";\r\n\r\ncontract ListingsRegistry {\r\n\r\n  event NewListing(uint _index);\r\n\r\n  address public owner;\r\n\r\n  Listing[] public listings;\r\n\r\n  mapping (address => uint) indexes;\r\n\r\n  constructor()\r\n    public\r\n  {\r\n    owner = msg.sender;\r\n  }\r\n\r\n  function listingsLength()\r\n    public\r\n    constant\r\n    returns (uint)\r\n  {\r\n      return listings.length;\r\n  }\r\n\r\n  function getListing(uint _index)\r\n    public\r\n    constant\r\n    returns (Listing, address, string, uint, uint)\r\n  {\r\n    return (\r\n      listings[_index],\r\n      listings[_index].owner(),\r\n      listings[_index].ipfsHash(),\r\n      listings[_index].price(),\r\n      listings[_index].unitsAvailable()\r\n    );\r\n  }\r\n\r\n  function getListingByAddress(address addrs)\r\n    public\r\n    constant\r\n    returns (Listing, address, string, uint, uint)\r\n  {\r\n\r\n    return (\r\n      listings[indexes[addrs]],\r\n      listings[indexes[addrs]].owner(),\r\n      listings[indexes[addrs]].ipfsHash(),\r\n      listings[indexes[addrs]].price(),\r\n      listings[indexes[addrs]].unitsAvailable()\r\n    );\r\n  }\r\n\r\n  function create(\r\n    string _ipfsHash,\r\n    uint _price,\r\n    uint _unitsAvailable\r\n  )\r\n    public\r\n    returns (uint)\r\n  {\r\n    listings.push(new Listing(msg.sender, _ipfsHash, _price, _unitsAvailable));\r\n    indexes[listings[listings.length - 1]] = listings.length - 1;\r\n    emit NewListing(listings.length-1);\r\n    return listings.length;\r\n  }\r\n}\r\n",
  "sourcePath": "E:\\my-store\\contracts\\ListingsRegistry.sol",
  "compiler": {
    "name": "solc",
    "version": "0.4.24+commit.e67f0147.Emscripten.clang"
  },
  "schemaVersion": "2.0.0",
  "updatedAt": "2018-06-12T20:01:22.581Z"
}