{
  "contractName": "PurchaseLibrary",
  "abi": [
    {
      "constant": false,
      "inputs": [
        {
          "name": "listing",
          "type": "Listing"
        },
        {
          "name": "_buyer",
          "type": "address"
        }
      ],
      "name": "newPurchase",
      "outputs": [
        {
          "name": "purchase",
          "type": "Purchase"
        }
      ],
      "payable": false,
      "stateMutability": "nonpayable",
      "type": "function"
    }
  ],
  "bytecode": "0x6109f9610030600b82828239805160001a6073146000811461002057610022565bfe5b5030600052607381538281f30073000000000000000000000000000000000000000030146080604052600436106100575763ffffffff7c01000000000000000000000000000000000000000000000000000000006000350416631c6b9b03811461005c575b600080fd5b81801561006857600080fd5b5061009073ffffffffffffffffffffffffffffffffffffffff600435811690602435166100b9565b6040805173ffffffffffffffffffffffffffffffffffffffff9092168252519081900360200190f35b600082826100c561010d565b73ffffffffffffffffffffffffffffffffffffffff928316815291166020820152604080519182900301906000f080158015610105573d6000803e3d6000fd5b509392505050565b6040516108b08061011e83390190560060806040526003805460ff1916905534801561001a57600080fd5b506040516040806108b083398101604052805160209091015160018054600160a060020a03928316600160a060020a031991821617909155600080549290931691161790554260025561083e806100726000396000f30060806040526004361061007f5763ffffffff60e060020a6000350416631b9265b88114610084578063325a19f11461008e5780637150d8ae146100b557806373d4a13a146100e6578063a3c0ac1014610168578063c040e6b81461017d578063c39b6840146101b6578063d516532714610217578063ee2c8ea01461022c575b600080fd5b61008c61028d565b005b34801561009a57600080fd5b506100a3610375565b60408051918252519081900360200190f35b3480156100c157600080fd5b506100ca61037b565b60408051600160a060020a039092168252519081900360200190f35b3480156100f257600080fd5b506100fb61038a565b604051600160a060020a03861681526020810185600681111561011a57fe5b60ff16815260200184600160a060020a0316600160a060020a0316815260200183600160a060020a0316600160a060020a031681526020018281526020019550505050505060405180910390f35b34801561017457600080fd5b5061008c6103af565b34801561018957600080fd5b506101926103c3565b604051808260068111156101a257fe5b60ff16815260200191505060405180910390f35b3480156101c257600080fd5b5060408051602060046024803582810135601f810185900485028601850190965285855261008c95833560ff169536956044949193909101919081908401838280828437509497506103f19650505050505050565b34801561022357600080fd5b506100ca61064e565b34801561023857600080fd5b5060408051602060046024803582810135601f810185900485028601850190965285855261008c95833560ff1695369560449491939091019190819084018382808284375094975061065d9650505050505050565b6000809054906101000a9004600160a060020a0316600160a060020a031663a035b1fe6040518163ffffffff1660e060020a028152600401602060405180830381600087803b1580156102df57600080fd5b505af11580156102f3573d6000803e3d6000fd5b505050506040513d602081101561030957600080fd5b505130311061037357600380546001919060ff191682805b02179055506003546040517f297fa9ffcce4a8f1e427986966e131669169a104212e72d48d20e935391873399160ff16908082600681111561035f57fe5b60ff16815260200191505060405180910390a15b565b60025481565b600154600160a060020a031681565b600354600054600154600254309360ff1692600160a060020a03908116921691929394565b600380546002919060ff1916600183610321565b6000600260035460ff1660068111156103d857fe5b14156103e6575060036103ee565b5060035460ff165b90565b6003805460ff19166006908117918290556040517f297fa9ffcce4a8f1e427986966e131669169a104212e72d48d20e935391873399260ff16918190839081111561043857fe5b60ff16815260200191505060405180910390a17fdfb7c05c34f1e510643d0afd4a7720308aa8820f72e6b29d860780eefb8deb196000809054906101000a9004600160a060020a0316600160a060020a0316638da5cb5b6040518163ffffffff1660e060020a028152600401602060405180830381600087803b1580156104be57600080fd5b505af11580156104d2573d6000803e3d6000fd5b505050506040513d60208110156104e857600080fd5b505160015460408051600160a060020a038085168252909216602083810182905260ff881692840192909252608060608401818152875191850191909152865191938893889391929160a084019185019080838360005b8381101561055757818101518382015260200161053f565b50505050905090810190601f1680156105845780820380516001836020036101000a031916815260200191505b509550505050505060405180910390a16000809054906101000a9004600160a060020a0316600160a060020a0316638da5cb5b6040518163ffffffff1660e060020a028152600401602060405180830381600087803b1580156105e657600080fd5b505af11580156105fa573d6000803e3d6000fd5b505050506040513d602081101561061057600080fd5b5051604051600160a060020a0390911690303180156108fc02916000818181858888f19350505050158015610649573d6000803e3d6000fd5b505050565b600054600160a060020a031681565b6003805460ff19168117908190556040517f297fa9ffcce4a8f1e427986966e131669169a104212e72d48d20e935391873399160ff1690808260068111156106a157fe5b60ff16815260200191505060405180910390a160015460008054604080517f8da5cb5b00000000000000000000000000000000000000000000000000000000815290517fdfb7c05c34f1e510643d0afd4a7720308aa8820f72e6b29d860780eefb8deb1994600160a060020a0390811694931692638da5cb5b92600480820193602093909283900390910190829087803b15801561073e57600080fd5b505af1158015610752573d6000803e3d6000fd5b505050506040513d602081101561076857600080fd5b505160408051600160a060020a038085168252831660208281019190915260ff881692820192909252608060608201818152875191830191909152865188938893929160a084019185019080838360005b838110156107d15781810151838201526020016107b9565b50505050905090810190601f1680156107fe5780820380516001836020036101000a031916815260200191505b509550505050505060405180910390a150505600a165627a7a72305820000ac62564a6cdc3a1c8994796682138afd7b0cb64dca818f9267ac4b9f4fba00029a165627a7a723058203be93cb5769ba5ba43a025827486538170ef7d4bd67816664723180f1ec9fd6a0029",
  "source": "pragma solidity 0.4.24;\r\n\r\n/// @title PurchaseLibrary\r\n/// @dev An collection of helper tools for a purchase\r\n\r\nimport \"./Purchase.sol\";\r\nimport \"./Listing.sol\";\r\n\r\nlibrary PurchaseLibrary {\r\n\r\n    function newPurchase(Listing listing, address _buyer)\r\n    public\r\n    returns (Purchase purchase)\r\n    {\r\n        purchase = new Purchase(listing, _buyer);\r\n    }\r\n\r\n}\r\n",
  "sourcePath": "E:\\my-store\\contracts\\PurchaseLibrary.sol",
  "compiler": {
    "name": "solc",
    "version": "0.4.24+commit.e67f0147.Emscripten.clang"
  },
  "schemaVersion": "2.0.0",
  "updatedAt": "2018-06-12T20:01:16.769Z"
}