{
  "contractName": "UserRegistry",
  "abi": [
    {
      "constant": true,
      "inputs": [
        {
          "name": "",
          "type": "address"
        }
      ],
      "name": "users",
      "outputs": [
        {
          "name": "",
          "type": "address"
        }
      ],
      "payable": false,
      "stateMutability": "view",
      "type": "function"
    },
    {
      "anonymous": false,
      "inputs": [
        {
          "indexed": false,
          "name": "_address",
          "type": "address"
        },
        {
          "indexed": false,
          "name": "_identity",
          "type": "address"
        }
      ],
      "name": "NewUser",
      "type": "event"
    },
    {
      "constant": false,
      "inputs": [],
      "name": "registerUser",
      "outputs": [],
      "payable": false,
      "stateMutability": "nonpayable",
      "type": "function"
    },
    {
      "constant": false,
      "inputs": [],
      "name": "clearUser",
      "outputs": [],
      "payable": false,
      "stateMutability": "nonpayable",
      "type": "function"
    }
  ],
  "bytecode": "0x608060405234801561001057600080fd5b506101c6806100206000396000f3006080604052600436106100565763ffffffff7c01000000000000000000000000000000000000000000000000000000006000350416634d3820eb811461005b57806376b1658814610072578063a87430ba14610087575b600080fd5b34801561006757600080fd5b506100706100de565b005b34801561007e57600080fd5b50610070610146565b34801561009357600080fd5b506100b573ffffffffffffffffffffffffffffffffffffffff60043516610172565b6040805173ffffffffffffffffffffffffffffffffffffffff9092168252519081900360200190f35b3260008181526020818152604091829020805473ffffffffffffffffffffffffffffffffffffffff19163390811790915582519384529083015280517fff3eabe1067b08ba8af3e8d3191eebeae9b35de7a7aeee40f2ad1ceb6a8876079281900390910190a1565b336000908152602081905260409020805473ffffffffffffffffffffffffffffffffffffffff19169055565b60006020819052908152604090205473ffffffffffffffffffffffffffffffffffffffff16815600a165627a7a7230582087f8bf683fbe3ad490282a5d8bba9bc3a255b8dfc508a470f2a57ea212d8c8b40029",
  "source": "pragma solidity 0.4.24;\r\n\r\ncontract UserRegistry {\r\n    event NewUser(address _address, address _identity);\r\n\r\n    mapping(address => address) public users;\r\n    \r\n    function registerUser()\r\n      public\r\n    {\r\n        users[tx.origin] = msg.sender;\r\n        emit NewUser(tx.origin, msg.sender);\r\n    }\r\n    function clearUser()\r\n      public\r\n    {\r\n        users[msg.sender] = 0;\r\n    }\r\n}\r\n",
  "sourcePath": "E:\\my-store\\contracts\\UserRegistry.sol",
  "compiler": {
    "name": "solc",
    "version": "0.4.24+commit.e67f0147.Emscripten.clang"
  },
  "schemaVersion": "2.0.0",
  "updatedAt": "2018-06-12T20:01:16.769Z"
}