{
  "contractName": "UserRecorder",
  "abi": [
    {
      "constant": true,
      "inputs": [
        {
          "name": "",
          "type": "uint256"
        }
      ],
      "name": "moUsers",
      "outputs": [
        {
          "name": "",
          "type": "address"
        }
      ],
      "payable": false,
      "stateMutability": "view",
      "type": "function"
    },
    {
      "constant": false,
      "inputs": [
        {
          "name": "_iPublicAddress",
          "type": "uint256"
        }
      ],
      "name": "Add",
      "outputs": [
        {
          "name": "",
          "type": "uint256"
        }
      ],
      "payable": false,
      "stateMutability": "nonpayable",
      "type": "function"
    },
    {
      "constant": true,
      "inputs": [],
      "name": "GetUsers",
      "outputs": [
        {
          "name": "",
          "type": "address[16]"
        }
      ],
      "payable": false,
      "stateMutability": "view",
      "type": "function"
    }
  ],
  "bytecode": "0x608060405234801561001057600080fd5b506102bc806100206000396000f300608060405260043610610057576000357c0100000000000000000000000000000000000000000000000000000000900463ffffffff1680633053f1fb1461005c57806390f1f758146100c9578063da3eec191461010a575b600080fd5b34801561006857600080fd5b506100876004803603810190808035906020019092919050505061015d565b604051808273ffffffffffffffffffffffffffffffffffffffff1673ffffffffffffffffffffffffffffffffffffffff16815260200191505060405180910390f35b3480156100d557600080fd5b506100f460048036038101908080359060200190929190505050610192565b6040518082815260200191505060405180910390f35b34801561011657600080fd5b5061011f6101eb565b6040518082601060200280838360005b8381101561014a57808201518184015260208101905061012f565b5050505090500191505060405180910390f35b60008160108110151561016c57fe5b016000915054906101000a900473ffffffffffffffffffffffffffffffffffffffff1681565b6000336000836010811015156101a457fe5b0160006101000a81548173ffffffffffffffffffffffffffffffffffffffff021916908373ffffffffffffffffffffffffffffffffffffffff160217905550819050919050565b6101f361026c565b6000601080602002604051908101604052809291908260108015610262576020028201915b8160009054906101000a900473ffffffffffffffffffffffffffffffffffffffff1673ffffffffffffffffffffffffffffffffffffffff1681526020019060010190808311610218575b5050505050905090565b610200604051908101604052806010906020820280388339808201915050905050905600a165627a7a72305820f00ce47e7e76a9f70d8f4bad02c26c9d6edbbb9b0e157c66db47c410ba007d660029",
  "source": "pragma solidity ^0.4.17;\r\n\r\ncontract UserRecorder {\r\n    address[16] public moUsers;\r\n\r\n    function Add(uint _iPublicAddress) public returns (uint) {\r\n        moUsers[_iPublicAddress] = msg.sender;\r\n\r\n        return _iPublicAddress;\r\n    }\r\n\r\n    function GetUsers() public view returns (address[16]) {\r\n        return moUsers;\r\n    }\r\n}",
  "sourcePath": "E:\\my-store\\contracts\\UserRecorder.sol",
  "compiler": {
    "name": "solc",
    "version": "0.4.24+commit.e67f0147.Emscripten.clang"
  },
  "schemaVersion": "2.0.0",
  "updatedAt": "2018-06-04T19:17:24.427Z"
}